:020000040800F2
:1000000048040020010100088B0300088303000856
:100010008703000849010008F710000800000000ED
:100020000000000000000000000000006D05000856
:10003000F9010008000000003504000881060008EE
:100040001B0100081B0100081B0100081B01000820
:100050001B0100081B0100081B0100081B01000810
:100060001B0100081B0100081B0100081B01000800
:100070001B0100081B0100081B0100081B010008F0
:100080001B0100081B0100081B0100081B010008E0
:100090001B0100081B0100081B0100081B010008D0
:1000A0001B0100081B0100081B0100081B010008C0
:1000B0001B0100081B010008590800081B0100086B
:1000C0001B0100081B0100081B0100081B010008A0
:1000D0001B0100080D0D0008E50E0008010F0008C7
:1000E0001B0100081B0100081B010008DFF80CD0F1
:1000F00000F018F8004800475D110008480400208F
:100100000648804706480047FEE7FEE7FEE7FEE7B1
:10011000FEE7FEE7FEE7FEE7FEE7FEE785060008EE
:10012000ED000008064C074D06E0E06840F00103D2
:1001300094E8070098471034AC42F6D3FFF7DAFF93
:10014000C0110008E011000800BFFEE710B5002153
:10015000014800F020FD10BD0004004010B5074824
:10016000007850B90120054908700021044800F0CA
:1001700010FD0021024800F010FD10BD1F000020FE
:10018000002C014010B504462146024800F003FD52
:1001900010BD00000004004021B1026842F00102DD
:1001A000026004E002684FF6FE731A400260704776
:1001B0000146486880B2704710B50022026847F6D1
:1001C000F0739A430C6A8B6823430C6923434C6990
:1001D00023438C692343CC6923434C6A23438C6AB1
:1001E00023431A430260CB6843600B6883604B680B
:1001F000C36010BD416070477047000010B51948DA
:10020000006800F1280441F27070FFF7BBFF00BFE7
:1002100014480068A04203D2134800780128F7D0A0
:100220001048006800F10A0444F62060FFF7AAFFB6
:1002300000BF0C480068A04203D20B480078012898
:10024000F7D00848006800F10A04FFF77FFF00BFFD
:1002500004480068A04203D2034800780128F7D080
:1002600010BD0000180000201D0000202DE9F04105
:10027000024600250026002000230024002791F8D4
:1002800003C00CF00F0591F803C00CF0100CBCF18A
:10029000000F03D091F802C04CEA050591F800C0A8
:1002A000BCF1000F31D0146800202BE04FF0010C9E
:1002B0000CFA00F3B1F800C00CEA03069E4220D10C
:1002C00083004FF00F0C0CFA03F7BC4305FA03FC54
:1002D0004CEA040491F803C0BCF1280F06D14FF09A
:1002E000010C0CFA00FCC2F814C00AE091F803C03B
:1002F000BCF1480F05D14FF0010C0CFA00FCC2F81C
:1003000010C0401C0828D1D31460B1F800C0BCF163
:10031000FF0F34DD546800202EE000F1080C4FF090
:10032000010808FA0CF3B1F800C00CEA03069E427B
:1003300021D183004FF00F0C0CFA03F7BC4305FAF0
:1003400003FC4CEA040491F803C0BCF1280F05D16A
:1003500000F1080C08FA0CF8C2F8148091F803C0F8
:10036000BCF1480F07D100F1080C4FF0010808FA62
:100370000CF8C2F81080401C0828CED35460BDE8A9
:10038000F08100BFFEE700BFFEE7704770B50021B7
:1003900000230F22C47804B3154C246804F4E064ED
:1003A000C4F5E064210AC1F10403CA40447804FAA8
:1003B00003F184781440214309010E4C0678A155BD
:1003C000047804F01F050124AC4005786D11AD00E0
:1003D00005F1E025C5F8004109E0047804F01F05A7
:1003E0000124AC40044D0678761145F8264070BDD6
:1003F0000CED00E000E400E080E100E00249014390
:10040000024A1160704700000000FA050CED00E0A0
:1004100010B506480078012807D10020034908706C
:100420004FF47A71024800F0B4FB10BD1F000020A9
:10043000002C01407047000029B1064A526902436E
:10044000044B5A6104E0034A52698243014B5A61EA
:10045000704700000010024029B1064AD2690243E9
:10046000044BDA6104E0034AD2698243014BDA614A
:10047000704700000010024029B1064A9269024309
:10048000044B9A6104E0034A92698243014B9A61EA
:10049000704700000010024030B500210022002407
:1004A00000232D4D6D6805F00C0121B1042905D004
:1004B000082923D105E0294D056022E0274D05607C
:1004C0001FE0254D6D6805F47012234D6D6805F42D
:1004D0008034022505EB92421CB9214D554305603D
:1004E0000BE01D4D6D6805F400351DB11C4D5543E5
:1004F000056002E0194D5543056002E0174D0560A7
:1005000000BF00BF144D6D6805F0F0010909154DDD
:100510006B5C0568DD4045600F4D6D6805F4E0617A
:10052000090A104D6B5C4568DD4085600A4D6D68B9
:1005300005F46051C90A0B4D6B5C4568DD40C56030
:10054000054D6D6805F44041890B074D6B5CC5682E
:10055000B5FBF3F5056130BD0010024000127A00D2
:1005600000093D002400002034000020704710B531
:1005700000F002F810BD00000CB5002001900090C2
:100580003348006840F480303149086000BF30488B
:10059000006800F4003000900198401C0190009821
:1005A00018B90198B0F5A06FF1D12948006800F49E
:1005B000003010B10120009001E000200090009870
:1005C000012843D12348006840F010002149086009
:1005D0000846006820F0030008600846006840F004
:1005E000020008601A484068194948600846406897
:1005F00048600846406840F48060486008464068AB
:1006000020F47C1048600846406840F4E8104860D8
:100610000846006840F08070086000BF0C48006821
:1006200000F000700028F9D00948406820F003006D
:10063000074948600846406840F00200486000BF33
:100640000348406800F00C000828F9D10CBD0000F8
:100650000010024000200240042808D14FF0E021A1
:10066000096941F004014FF0E022116107E04FF009
:10067000E021096921F004014FF0E0221161704787
:100680007047000010B51348006840F001001149A0
:10069000086008464068104908400E49486008460E
:1006A00000680E4908400B4908600846006820F4BD
:1006B000802008600846406820F4FE0048604FF43F
:1006C0001F008860FFF753FF4FF000600449086087
:1006D00010BD0000001002400000FFF8FFFFF6FE12
:1006E00008ED00E030B589B005460C460121C8028E
:1006F000FFF7C2FE01210420FFF7BEFE4FF4807019
:10070000ADF8200018208DF8230003208DF822007A
:1007100008A92448FFF7AAFD4FF40060ADF82000B7
:1007200018208DF8230003208DF8220008A91D4809
:10073000FFF79CFDADF81850ADF814400020ADF85F
:100740001A00ADF8160005A9174800F029FA702024
:10075000ADF804000120ADF806000220ADF80C0051
:10076000C001ADF8100001A90F4800F017F901A968
:100770000D4800F0C3F908210B4800F05BF908218F
:10078000094800F0F9F90121074800F0BBF8012100
:10079000054800F0C6F80121034800F0CEF809B082
:1007A00030BD000000080140002C014030B589B088
:1007B00005460C4601210220FFF74EFE01210820CC
:1007C000FFF75AFE0120ADF8200018208DF8230015
:1007D00003208DF8220008A91D48FFF747FD0220DD
:1007E000ADF8200018208DF8230003208DF822009A
:1007F00008A91748FFF73AFDADF81850ADF81440B6
:100800000020ADF81A00ADF8160005A9114800F057
:10081000C7F97020ADF804000120ADF806000220F1
:10082000ADF80C0001A90B4800F00EF901A9094828
:1008300000F064F90821074800F056F9082105483E
:1008400000F09AF90121034800F06BF809B030BDBF
:10085000000C01400004004010B501210C4800F0DC
:1008600082F878B10B480078401C0A4908700846A5
:100870000078142806D10020087007480068401C42
:10088000054908600121024800F048F810BD000049
:10089000000800401C000020180000207FB505461D
:1008A0000C4601210420FFF7D7FDADF80850ADF844
:1008B00004400020ADF80A00ADF8060001A9104878
:1008C00000F06EF9012211460D4800F05DF801219B
:1008D0000B4800F023F81E208DF8000002208DF850
:1008E000010003208DF8020001208DF80300684606
:1008F000FFF74CFD0121024800F013F87FBD000016
:100900000008004021B1028842F08002028004E029
:1009100002884FF67F731A4002807047CA430282F2
:10092000704721B1028842F00102028004E002888F
:100930004FF6FE731A400280704731B1B0F8442080
:1009400042F40042A0F8442005E0B0F84420C2F38D
:100950000E02A0F8442070470146888E7047014679
:10096000B1F84000704730B5024600200023002453
:10097000158A05EA0103958905EA010413B10CB152
:10098000012000E0002030BD1AB183890B43838130
:1009900002E083898B4383817047000070B5002497
:1009A00000220023058C4FF6FE7635400584028C2C
:1009B0008388048B4FF68F752C40B51E2C400D8814
:1009C0002C43751E2A400D892A434D882A43144D15
:1009D000A8420BD0134DA84208D0134DA84205D011
:1009E000124DA84202D0124DA84213D14FF6F7750E
:1009F0002A404D892A434FF6FB752A408D882A43A9
:100A00004FF6FF652B404FF6FF552B408D892B434A
:100A1000CD892B4383800483CD888586028470BD75
:100A2000002C0140003401400040014000440140DE
:100A3000004801400A460021018B4FF6F773194028
:100A4000114301837047000070B500240022002389
:100A5000058C4FF6FF6635400584028C8388848BB5
:100A60004FF68F752C404FF6FC752C400D882C43AB
:100A70004FF6FF552A400D894FF6FF7606EA052509
:100A80002A434D8806EA05252A43154DA84202D07F
:100A9000144DA8421DD14FF2FF752A404D894FF6E3
:100AA000FF7606EA05252A434FF6FF352A408D8852
:100AB00006EA05252A434EF6FF752B404DF6FF75D5
:100AC0002B408D8906EA05152B43CD8906EA0515CD
:100AD0002B4383808483CD888587028470BD00008A
:100AE000002C0140003401400A460021818B4FF662
:100AF000F7731940114381837047000070B50022DD
:100B000000230024058C4EF6FF7635400584038CC7
:100B10008488828B48F6FF752A404FF6FF452A40AD
:100B20000D884FF6FF7606EA05252A434DF6FF7538
:100B30002B400D8906EA05352B434D8806EA05351D
:100B40002B430B4DA84202D00A4DA84208D14BF6C8
:100B5000FF752C408D894FF6FF7606EA85152C43EC
:100B600084808283CD88A0F84050038470BD00004B
:100B7000002C0140003401400A460021818B4FF2D5
:100B8000FF7319404FF6FF7303EA02231943818371
:100B900070478186704781877047A0F84010704782
:100BA000002202881D4B98420ED01D4B98420BD05C
:100BB000B0F1804F08D01B4B984205D01A4B984299
:100BC00002D01A4B984204D14FF68F731A404B88CB
:100BD0001A43174B984207D0164B984204D04FF651
:100BE000FF431A40CB881A4302808B8883850B8889
:100BF00003850A4B98420BD0094B984208D00E4B04
:100C0000984205D00D4B984202D00D4B984201D12D
:100C10000B7A03860123838270470000002C014079
:100C2000003401400004004000080040000C004077
:100C3000001000400014004000400140004401400A
:100C40000048014010B51448007818BB13480078DC
:100C500070B91348FFF780FE0446A4F1640084B223
:100C6000642C00DC642421460D48FFF792FF11E05C
:100C70000A48007801280DD10948FFF770FE0446A4
:100C8000A4F1640084B2642C00DC6424214604488E
:100C9000FFF783FF10BD00001F0000201E00002092
:100CA000002C014010B51648007838BB1548007874
:100CB00080B91548FFF750FE044604F1640084B281
:100CC000B4F57A7F01DB4FF47A7421460E48FFF7C2
:100CD00060FF13E00B48007801280FD10A48FFF7A6
:100CE0003EFE044604F1640084B2B4F57A7F01DB71
:100CF0004FF47A7421460448FFF74FFF10BD0000FF
:100D00001F0000201E000020002C014010B540F202
:100D100024412E4800F02FF9002856D02B4800F02F
:100D2000E5F92B48FFF744FAC0F10A002949087099
:100D300008460078062837D127480078A52833D1FF
:100D4000254840785A282FD12348807804282BD171
:100D500021484079AA2827D11F48C078B1380628F1
:100D600020D2DFE800F0030609111417FFF750FB4B
:100D700019E0FFF797FF16E018480078012802D025
:100D80000120164908700EE0FFF7E8F90BE0FFF7C5
:100D900059FF08E011480078022802D002200F49CC
:100DA000087000E000BF00BF40F22441074800F097
:100DB000BEF800210648FFF7EFF90A210448FFF7C3
:100DC00019FA01210248FFF7E7F910BD0038014088
:100DD0005800024014000020380000201D000020B0
:100DE00010B592B0044601218803FFF745FB0121AD
:100DF0000420FFF741FB01210846FFF71DFB1820E7
:100E00008DF847004FF40070ADF8440003208DF8D2
:100E1000460011A92F48FFF729FA04208DF8470052
:100E20000002ADF8440011A92A48FFF71FFA252057
:100E30008DF8300001208DF833008DF8310000204E
:100E40008DF832000CA8FFF7A1FA0D940020ADF840
:100E500040000C20ADF83E000020ADF83C00ADF89D
:100E60003A00ADF838000DA91B4800F0D3F81A4835
:100E7000001D019019480290002003900A20049060
:100E8000002005908020069000200790089009908F
:100E90004FF480500A9000200B9001A91048FFF7F2
:100EA0008BF9012240F224410B4800F08EF84021DA
:100EB000094800F033F801224021074800F052F8B9
:100EC0000121054800F042F801210548FFF764F9C7
:100ED00012B010BD00080140003801403800002069
:100EE0005800024010B540F22551044800F043F884
:100EF0004021024800F012F810BD000000440040FC
:100F000010B540F22551044800F035F84021024860
:100F100000F004F810BD00000048004001F4007229
:100F2000B2F5007F00D100BFCA430280704710B500
:100F30000022002340F66A14A14200D100BF0A1229
:100F400001249440A3B2DC43048010BD21B1828906
:100F500042F40052828104E082894DF6FF731A4008
:100F6000828170471AB1838A0B43838202E0838AAD
:100F70008B438382704770B502460024002300250E
:100F8000002040F66A16B14200D100BFC1F34215FD
:100F900001F01F03012606FA03F3012D02D1968901
:100FA000334006E0022D02D1168A334001E0968AD2
:100FB00033400C12012606FA04F41688344013B1AB
:100FC0000CB1012000E0002070BDF0B50346002404
:100FD00000260025002040F66A17B94200D100BF64
:100FE0001846C1F3421401F01F06012707FA06F55F
:100FF000012C01D10C3004E0022C01D1103000E0B2
:1010000014301AB107682F43076002E00768AF4346
:101010000760F0BD2DE9F04786B005460E46002476
:10102000A24600BFA1460027B08900B100BF2F46ED
:101030002C8A4CF6FF700440F08804432C82AC8963
:101040004EF6F3100440B088318908437189084393
:101050000443AC81AC8A4FF6FF400440B08904439E
:10106000AC8201A8FFF718FA1F48874202D1DDF8C9
:1010700010A001E0DDF80CA0A88900F4004040B108
:101080000AEBCA0000EB0A1031684900B0FBF1F826
:1010900007E00AEBCA0000EB0A1031688900B0FBD8
:1010A000F1F86420B8FBF0F004012009642101FB91
:1010B0001089A88900F4004040B1322000EBC9003B
:1010C000B0FBF1F000F00700044308E0322000EB31
:1010D00009106421B0FBF1F000F00F0004432C81F3
:1010E00006B0BDE8F087000000380140014688885E
:1010F000C0F30800704700BFFEE702E008C8121FF7
:1011000008C1002AFAD170477047002001E001C1F0
:10111000121F002AFBD1704710B56FF00400FFF7D3
:101120009BFA0A4800680A49B0FBF1F009490870C7
:101130000846007800EB4001C1EBC0104FF6FF718C
:1011400001EAC0000449088010BD00000000002032
:1011500000127A002000002022000020FFF7DCFFB0
:101160004FF4A060FFF74AF94FF41650FFF738FE2E
:1011700047214FF47A70FFF7B5FA472144F61F6014
:10118000FFF714FB47214CF24F30FFF787FB11E0CC
:1011900009480078012802D0022809D102E0FFF7AF
:1011A0002DF806E044F620610448FFF7F4FC00E067
:1011B00000BF00BFECE700001D000020000400405D
:1011C000E01100080000002038000000FA100008BC
:1011D0001812000838000020100400000A1100084E
:1011E00000A24A0400000000000000000102030405
:1011F00006070809000000000000000000010001CF
:1012000000000000000000000102030401020304CA
:081210000607080902040608A4
:0400000508000101ED
:00000001FF
