:020000040800F2
:10000000400B002045010008490100084B01000891
:100010004D0100084F0100085101000800000000D8
:100020000000000000000000000000005301000874
:1000300055010008000000005701000859010008A0
:100040005B0100085B0100085B0100085B01000820
:100050005B0100085B0100085B0100085B01000810
:100060005B0100085B0100085B0100085B01000800
:100070005B0100085B0100085B0100085B010008F0
:100080005B0100085B0100085B0100085B010008E0
:100090005B0100085B0100085B0100085B010008D0
:1000A0005B0100085B0100085B0100085B010008C0
:1000B0002D320008453200085D3200085B0100085F
:1000C0005B0100085B0100085B0100085B010008A0
:1000D0005B0100089936000849370008E537000839
:1000E0005B0100085B0100085B0100085B01000880
:1000F0005B0100085B0100085B0100085B01000870
:100100005B0100085B010008753200085B01000814
:10011000CD340008C93500088D3200085B010008A5
:100120005B0100085B0100085B0100085B0100083F
:10013000DFF80CD000F0A4FC00480047853D000823
:10014000400B002005480047FEE7FEE7FEE7FEE71C
:10015000FEE7FEE7FEE7FEE7FEE7FEE73101000807
:10016000F0B480EA0102D40F4200B2EB410F02D298
:100170000246084611464A0042D0C30DDDB2C1F323
:10018000C752AD1A202D35DAC1F3160141F4000231
:1001900004B15242C5F1200602FA06F12A41104488
:1001A000B3EBD05F23D0C4B1012DA0EBC35009DC69
:1001B000F0BC4FF0004202EAC352DBB200F500008F
:1001C00000F03EBB400000F1807000EBC350A0F196
:1001D000807040EAD170490009E0490841EAC071E5
:1001E000A0EBC35000F50000400800EBC350F0BC8A
:1001F00000F01DBB6142012202EB4101001BF6E74A
:10020000F0BC704781F00041AAE780F00040A7E70A
:1002100080EA010210B502F00043400022D04A00FB
:100220001FD0010E01EB1261C0F35600C2F356025B
:1002300040F4000042F40002A0FB022000047F39D9
:10024000140400D0401C50EA124001D44000491E62
:10025000C2B20C0604EBD010401C4008802A02D029
:1002600003E0002010BD20F00100002900DA00208A
:10027000184310BD30B480EA010202F0004530F0AE
:10028000004221F0004013D090B1C30DD40DC2F351
:100290001601C0F31600E41A41F4000140F4000214
:1002A0007D34914201D3641C00E04900002C02DA45
:1002B00030BC002070474FF400000023914201D36E
:1002C000891A034340084FEA4101F7D151B19142E5
:1002D00002D14FF0004105E002D24FF0010101E0F0
:1002E0006FF0010103EBC450284430BC00F09FBA0A
:1002F0002DE9FE4F804681EA0300C00F0C460090B6
:1003000021F0004123F00045B8EB0200A94105D2DD
:100310004046214690461C460B46024623F00040CC
:10032000104347D0270DC7F30A00C3F30A510290C8
:10033000401A019040286BDAC3F3130040F4801B8D
:100340000098924620B10023D2EB030A63EB0B0B1B
:1003500001985946C0F14002504600F037FA06466F
:100360000D4650465946019A00F04FFA10EB08002E
:100370006141002487EA115284EAE7731A4340D0AE
:10038000009A62B3019A012A4FEA075215DC001B5A
:1003900061EB02014FF0004202EA0752CDE9004250
:1003A000001C41F5801132462B4600F086FA03B05E
:1003B000BDE8F08F40462146F9E7001B61EB0201E2
:1003C000001C41F5801300185B412018A2F50017AE
:1003D00047EB030140EAD570B6196D4111E06D0895
:1003E0004FEA360645EAC0754FEA0752001B61EB3B
:1003F0000201001C41F5801149084FEA3000001944
:10040000514132462B4603B0BDE8F04F00F046BAEA
:100410000098012240000023D0EB020263EBE0735E
:10042000009821464FEAE074B8EB000061EB04014C
:10043000E9E783F000435BE781F0004158E72DE9ED
:10044000FE4F81EA030404F0004421F000410094CF
:100450004FF0000B23F0004350EA01045ED052EA53
:1004600003045BD0C3F30A54C1F30A552C44A4F22D
:10047000F3340194A0FB0254C1F3130141F4801141
:10048000C3F3130343F4801301FB024400FB034E48
:10049000840A970A44EA815447EA8357A4FB076811
:1004A00002958D0A05FB07854FEA932C04FB0C543B
:1004B0002705029D4FEA065847EA1637B5EB0805AF
:1004C0006EEB070C870E920E47EA811742EA831201
:1004D000A7FB0201B6EB0B0164EB00042B0D43EA12
:1004E0000C335E1844EB1C50DA465146E7FB020120
:1004F000C5F313044FEA0B3343EA14534FEA0432B3
:10050000019C43EA0603A4F10C040294009CCDE98B
:1005100000B400F0D2F903B0BDE8F08F002001462E
:10052000F9E72DE9F04D81EA030404F0004B21F0D6
:10053000004514464FF0000A23F0004150EA05023E
:1005400020D054EA01021DD0C5F30A570246C5F374
:100550001303C1F31300C1F30A5640F4801543F4AA
:100560008013A7EB0608101BD64608F2FD3873EB84
:10057000050002D308F1010801E092185B41B8F1CF
:10058000000F03DA00200146BDE8F08D00204FF493
:100590008011064684460EE0171B73EB050705D352
:1005A000121B63EB050306434CEA010C49084FEAB2
:1005B000300092185B4150EA0107EDD152EA030086
:1005C00012D082EA040083EA0501084305D0101B1B
:1005D000AB4106D20122002306E000224FF0004387
:1005E00002E06FF0010253101AEB06004CEB0851C9
:1005F00010EB0A0041EB0B01BDE8F04D00F04EB9E5
:10060000C10F80EAE0700844CA079623002100F079
:1006100017B996230022114600F012B90EB5C10F8A
:1006200080EAE0700844CA07002140F233438DE8B5
:100630000E000A460B4600F040F903B000BD0EB5AF
:1006400040F2334102910021CDE900110A460B46E8
:1006500000F033F903B000BD00F0004220F000408C
:10066000C10DC0F3160040F400007F2901DA00201C
:100670007047962903DCC1F19601C84001E0963924
:100680008840002AF4D04042704720F00040C10D5D
:10069000C0F3160040F400007F2901DA0020704703
:1006A000962903DCC1F19601C8407047963988400D
:1006B0007047C1F30A5210B5C1F3130140F2FF3382
:1006C00041F480119A4201DA002010BD40F2334318
:1006D0009A42A2F2334203DC524200F086F810BD87
:1006E000904010BD00F0004230F000400AD0C10D33
:1006F00001F56071C0F3160042EA0151C2084007DB
:1007000011437047002001467047000030B5041EB9
:1007100071F1000404DB4FF00044404264EB01013E
:10072000141E73F1000405DB1C464FF000435242D7
:1007300063EB04038B4208BF824230BD30B5041E18
:1007400071F1000404DB4FF00044404264EB01010E
:10075000141E73F1000405DB1C464FF000435242A7
:1007600063EB0403994208BF904230BD01F000439F
:1007700030B421F0004150EA010206D00A0DA2F582
:100780006072C1F31301002A02DC30BC0020704704
:10079000440F44EAC104C100E01830BC00EBC25071
:1007A00000F045B8002801DBC0F10040002901DB62
:1007B000C1F1004181427047002801DBC0F10040D7
:1007C000002901DBC1F1004188427047202A04DB87
:1007D000203A00FA02F1002070479140C2F1200354
:1007E00020FA03F3194390407047202A04DB203A93
:1007F00021FA02F00021704721FA02F3D040C2F141
:1008000020029140084319467047202A06DBCB1787
:10081000203A41FA02F043EAE07306E041FA02F3BB
:10082000D040C2F120029140084319467047002988
:10083000A8BF7047401C490008BF20F00100704766
:1008400010B4B0FA80FC00FA0CF050EA010404BFC6
:1008500010BC704749B1CCF1200421FA04F411FA1C
:100860000CF118BF012121430843A3EB0C01CB1D60
:100870004FEA00614FEA102042BF002010BC7047D1
:1008800000EBC35010440029A4BF10BC7047401CAB
:10089000490008BF20F0010010BC704710B5141EBD
:1008A00073F1000408DA401C41F1000192185B4129
:1008B0001A4301D120F0010010BD2DE9F04D924600
:1008C0009B4611B1B1FA81F202E0B0FA80F2203217
:1008D0009046FFF77BFF04460F4640EA0A0041EAD4
:1008E0000B0153465A46084313D0114653EA010000
:1008F00019D0C8F140025046FFF777FF05460E4673
:10090000504659464246FFF761FF084305D0012093
:1009100004E020463946BDE8F08D0020054346EA54
:10092000E0762C4337430A986305E40AA0EB0800FD
:100930000022FD0A44EA47540A3002D5002001464D
:10094000E9E7010510196941DDE908450019694128
:10095000BDE8F04DA2E72DE9F04D00231A461B1A21
:100960008A4103DB00200146BDE8F08DC1F30A5245
:10097000C1F3130141F480154FF0000BD10702D1F0
:1009800000186D41521E0027044640F2FF11384600
:1009900001EB620A3E468046024600204FF4801179
:1009A000FFF723FFC2197141BB1846EB0100B4EBFE
:1009B000030C75EB000C04D3E41A65EB0005174635
:1009C0000E46241908F101006D4180463428E3DD0C
:1009D000F91946EB0600091BA84103D24FF0FF327C
:1009E000134601E0002213461BEB070046EB0A51B9
:1009F000BDE8F04DFFF752BF2DE9FE4FC3F30A5794
:100A000001F000450024C1F30A56C3F31303C1F3F8
:100A1000130143F4801312EB020AA64641F480113D
:100A2000009543EB030CA7F1010B16E0B0EB0A00B5
:100A300061EB0C01071E71F1000707DA4FF00008A7
:100A4000D0EB080085F0004568EB0101171A73EB45
:100A50000107EBD3761E001849415E45F6DA50EAED
:100A6000010209D0CDE900E5002213460296FFF706
:100A700024FF03B0BDE8F08F20460099F9E700009D
:100A8000064C074D06E0E06840F0010394E80700DB
:100A900098471034AC42F6D3FFF74EFB644600088B
:100AA0008446000810B5012000F09EF80C4908604B
:100AB0000020486008E0012000F096F8084908602E
:100AC0000020486000F00EF8054908680021FFF793
:100AD00069FEF0D14FF47A7002F09AFB10BD00006D
:100AE0006C02002010B5FF2002F060FD012003F031
:100AF00055F8FF2002F05AFD012003F04FF80120C5
:100B000002F054FD012003F049F8022002F04EFDEE
:100B1000012003F043F8082002F048FD012003F013
:100B20003DF80B2002F042FD012003F037F810BD24
:100B300010B5FF2002F03AFD012003F02FF8FF204E
:100B400002F034FD012003F029F8022002F02EFD0E
:100B5000012003F023F8022002F028FD012003F019
:100B60001DF8082002F022FD012003F017F80C20E8
:100B700002F01CFD012003F011F810BD10B54FF478
:100B8000E13002F09FFD4FF4165002F069FF4FF480
:100B9000E13001F007F94FF4E13001F09DF84FF436
:100BA000E13001F0F3FE472144F61F6002F0C2F984
:100BB00000F0D2FA00F064FB00F0E8FB00F05CFC0F
:100BC00041F61F41C82002F00BF8472140F2E73000
:100BD00001F05EFC01F014FB01F0FCFA014801F0A9
:100BE000EDFF10BD000048422DE9F0470546002604
:100BF000012D21D1002024490860002414E0214661
:100C0000284602F03BF98146FFF703FD80461F4866
:100C100050F824104046FFF7FBFA07463146FFF72D
:100C20009FFA0646601CC4B20A2CE8DB16484660F0
:100C300001F086FABDE8F087102D22D1002014497A
:100C40000860002414E02146284602F017F9814686
:100C5000FFF7DFFC80460D4850F824104046FFF7B0
:100C6000D7FA07463146FFF77BFA0646601CC4B246
:100C70000A2CE8DB0648466001F062FA80F000408A
:100C8000D8E70020D6E70000D00100203000002087
:100C90000402002070B504460D4603484460056018
:100CA00001F04EFA70BD0000380200202DE9F04F2F
:100CB00089B04C48006880F0004B4B4801685846AA
:100CC000FFF74EFA0090494801680098FFF748FA8C
:100CD0000190474801680198FFF794FA4FF081416D
:100CE0000290FFF7C7FA43490390FFF7C3FA824621
:100CF000FFF7F8FC404A414BCDE90401FFF79FFBA9
:100D0000804600223E4BFFF79AFB064600224FF03A
:100D10008043FFF794FB3B4A3B4BCDE90601FFF7CD
:100D20008EFB0446FFF722FD3849C8602D48006855
:100D300080F0004000902C4801680098FFF762FAAC
:100D400001902A4801680198FFF70AFA834628486B
:100D500001685846FFF704FA4FF081410290FFF70F
:100D600089FA82462349FFF785FA0390FFF7BAFC18
:100D70008046214A214BFFF762FB0022204BCDE940
:100D80000401FFF75CFB00224FF08043CDE9060130
:100D9000FFF755FB06461B4A1B4BFFF750FB04466B
:100DA000FFF7E4FC194908610A4611691069FFF769
:100DB0002FFA8146154AD168D068FFF729FA824692
:100DC0004946FFF7CDF90446FFF78CFC074603F0D0
:100DD00023FC0546FFF7CAFC0C49486109B0BDE891
:100DE000F08F00001C0000202000002024000020C4
:100DF000280000200000C3441F85EB51B81E0940A5
:100E000000004D40BBB9F8DB9EA0E63F6C0200201D
:100E100010B51648007890B9FF2002F031FC01208F
:100E200002F0BCFE012002F02BFC012002F0B6FE15
:100E3000232002F025FC012002F0B0FE15E00B4853
:100E40000078012811D1FF2002F01AFC012002F0E5
:100E5000A5FE022002F014FC012002F09FFE2320D8
:100E600002F00EFC012002F099FE10BD600000208F
:100E700010B504460A492046FFF794FC04D90949F5
:100E80002046FFF799FC09D807492046FFF794FC54
:100E900004D206492046FFF7B5F90446204610BDA6
:100EA0000000B44200008743000034430000B44314
:100EB00010B50EE00948006818B90020084908700C
:100EC00008E00648001D006818B9012004490870B0
:100ED00000E0EFE700BF01F0A5FE10BD28012342AE
:100EE00060000020002006490860064908600649A5
:100EF0000860064908600649C86008614861704793
:100F00001C000020200000202400002028000020D9
:100F10006C02002008B53E48007830BB02203D4BF3
:100F20003D4A3E490090002001F0D8FC012001F02C
:100F3000C3FF4FF47A7002F06BF90221002002F037
:100F400057F84FF47A7002F063F904E00020344956
:100F5000086034484860344800680028F6D03248B9
:100F6000001D00680028F1D013E02948007801280E
:100F70000FD104E000202A4908602C4848602A4824
:100F8000083800680028F5D02748001F00680028AE
:100F9000F0D02748224948604FF47A7002F0FEFDF5
:100FA0004FF47A7002F034F92248006A214948620D
:100FB000486A1949FFF700FC13D21E49486A1E49C6
:100FC000FFF720F91B498862486A1349FFF71AF9AD
:100FD0001849C862486A1949FFF714F915490863A6
:100FE00012E01449486A1549FFF7BAF811498862B6
:100FF000486A0949FFF7B4F80E49C862486A0E49C1
:10100000FFF7AEF80B490863FFF76CFF08BD00005F
:10101000600000200000164300003443000020C29E
:101020006C0200200000F0C12C0124420000F041BD
:101030000000A04184020020000087430000B44269
:101040002DE9F04101241B49086A1B49FFF7DAF832
:101050000746FFF747FB21F0004105460022174BEA
:10106000FFF754FB00D2A41E102001F0F5FE052866
:101070001EDB134948691349FFF79EFB18D210493C
:1010800008680021FFF798FB05D20F48006820444C
:101090000D4908600AE00A4908680021FFF782FB51
:1010A00004D209480068001B07490860FFF71AFFCF
:1010B000BDE8F081840200200000344300804640F7
:1010C0006C02002000007042580000202DE9F04121
:1010D00001241B49086A1B49FFF794F80746FFF7EC
:1010E00001FB21F0004105460022174BFFF70EFBE4
:1010F00000D2A41E012001F0AFFE05281EDB13491B
:1011000048691349FFF758FB18D210494868002175
:10111000FFF752FB05D20F48006820440D490860D4
:101120000AE00A4948680021FFF73CFB04D209485D
:101130000068001B07490860FFF7D4FEBDE8F08196
:101140008402002000003443008046406C020020EE
:10115000000070425C00002010B54548806940F0F6
:101160000100434988614348406820F0E0604149FC
:1011700048600846406840F0007048600846406893
:1011800020F4407048600846406840F48070486031
:101190003748C06940F001003549C8610846806998
:1011A00040F0040088610846806940F008008861CA
:1011B0003148006820F070402F49086008460068F8
:1011C00040F0804008602D48006820F470402B49B2
:1011D00008600846006840F4804008604FF0804096
:1011E000808940F001004FF0804188810846808965
:1011F00040F0400088810020088547F22F50888504
:101200000846008820F4407008800846008820F0D6
:10121000600008800846008B40F001000883084603
:10122000008B40F4807008830846008C20F0020098
:1012300008840846008C20F0200008840846008BB3
:1012400040F0300008830846008940F00300088120
:1012500002231C220021012001F022F84FF08040DF
:10126000008840F001004FF08041088010BD000070
:10127000001002400000014004080140000C014041
:1012800010B53E48806940F001003C4988613C4807
:10129000406820F440603A49486008464068486029
:1012A0003648C06940F002003449C8610846806988
:1012B00040F00400886133480068324908600846FD
:1012C000006840F0884008602F48008840F0010026
:1012D0002D4908800846008840F040000880002022
:1012E00029491C31088047F22F50091D08802648E3
:1012F0000C38008820F4407023490C3908800846D7
:10130000008820F0600008801F480C30008840F002
:1013100001001D490C3108800846008840F48070A7
:10132000088019481430008820F002001649143152
:1013300008800846008820F02000088012480C3001
:10134000008840F0300010490C3108800E48001F22
:10135000008840F003000C49091F088002231D2269
:101360000021012000F09CFF07480C38008840F065
:10137000010005490C39088010BD00000010024032
:1013800000000140000801400C04004010B537483F
:10139000C06940F004003549C8610846806940F0E2
:1013A000080088613248006820F07F4030490860BA
:1013B0000846006840F0884008602E48008840F0E9
:1013C00001002C4908800846008840F04000088051
:1013D000002028491C31088047F22F50091D088041
:1013E00024480C38008820F4407022490C390880C9
:1013F0000846008820F0600008801E480C300088F5
:1014000040F001001B490C3108800846008840F478
:101410008070088017481430008820F002001549B9
:10142000143108800846008820F020000880114808
:101430000C30008840F030000E490C3108800D4817
:10144000001F008840F003000A49091F088002239A
:101450001E220021012000F023FF06480C380088DE
:1014600040F0010003490C39088010BD0010024013
:10147000000C01400C08004010B53748C06940F02E
:1014800008003549C8610846806940F00400886159
:101490003248006820F0FF003049086008460068C4
:1014A00040F0440008602E48008840F001002C49BC
:1014B00008800846008840F0400008800020284945
:1014C0001C31088047F22F50091D088024480C3831
:1014D000008820F4407022490C39088008460088B2
:1014E00020F0600008801E480C30008840F00100A9
:1014F0001B490C3108800846008840F48070088041
:1015000017481430008820F0020015491431088073
:101510000846008820F02000088011480C30008820
:1015200040F030000E490C3108800D48001F008843
:1015300040F003000A49091F0880022332220021DB
:10154000012000F0ADFE06480C38008840F0010094
:1015500003490C39088010BD00100240000801400A
:101560000C0C004008B50220054B002205490090F4
:10157000054801F0B3F900200449086008BD0000E7
:1015800000000A4400007042000070C26C0200209B
:1015900010B5042001F090FC012001F08DFC00202A
:1015A00023494862234888622348C8622348086365
:1015B00008E00020224908602248486000210846CF
:1015C00001F016FD1E4948691F49FFF7EBF8F0D3FB
:1015D00010E000201A4908601020FFF705FB1849A9
:1015E0004860FFF7A5FA0021084601F001FD14202C
:1015F00002F0D4FA124948684FF07E51FFF7DCF848
:10160000E7D3FFF76FFC1148007820B900210120D3
:1016100001F0A8FD07E00D480078012803D1002162
:10162000032001F09FFD4FF47A7001F0F1FD10BD31
:10163000840200200000B4420000344300008743CD
:101640006C020020000020420000164360000020D1
:1016500010B5FFF79DFF00F037F9FFF75BFCFFF7D0
:1016600021FAFFF7D5FB00BF044800780028FBD023
:1016700000F088F800F040F810BD000012000020D3
:1016800010B50648007810B900F00AF805E00348E4
:101690000078012801D1FFF7DBFF10BD60000020BA
:1016A00008B5FFF775FFFFF75DFF00F06DFAFFF774
:1016B000F9F9FFF7ADFB00BF0B4800780028FBD01D
:1016C000FFF728FC022000900848426A084B0949AD
:1016D000002001F003F94FF47A7001F099FD00F059
:1016E0001BF900F009F808BD120000208402002058
:1016F0000000AA430000204208B51D480078C8B980
:101700000221032001F02EFD01200346194A014663
:101710000090022001F0A6F8022000901648C26A4C
:10172000164B1449164801F0D9F84FF47A7001F0BD
:101730006FFD1CE00E480078012818D10421032019
:1017400001F010FD012003460A4A014600900320E3
:1017500001F088F8022000900748C26A074B05494B
:10176000074801F0BBF84FF47A7001F051FD08BD55
:10177000600000200000B4428402002000809844F1
:101780003333054238B5022000904448426A444B46
:101790004449002001F0A2F8012001F08DFB4FF434
:1017A0007A7001F035FD022000903C48426A3E4BC1
:1017B00000213E4801F092F80121084601F0D2FCD8
:1017C000FFF790FB00200123394A022100901846C0
:1017D00001F048F800200123354A0221009004203E
:1017E00001F040F801200023314A03210090042039
:1017F00001F038F8022000902848426A2D4B2C490D
:10180000002001F06BF84FF47A7001F001FD2349DC
:10181000886A012101F0ECFB4FF47A7001F0F8FCCA
:10182000FFF760FB022000901C48826A224B23498C
:10183000002001F053F84FF47A7001F0E9FC032026
:1018400001F03AFB4FF47A7001F0E2FC4FF47A7049
:1018500001F0DEFC022000901048826A164B13490A
:10186000002001F03BF84FF47A7001F0D1FC012127
:10187000134801F0BDFB002404E04FF47A7001F03E
:10188000C7FC641C5A2CF8DB0220074B0D4A0021D0
:101890000090064801F022F838BD000084020020C4
:1018A0000000AF430000B4C20000434400002042E7
:1018B0000000B4420000C34300009643000020C271
:1018C000000034430000A04208B5002001230E4A66
:1018D00019460090032000F0C5FF012003460A4A84
:1018E0000146009000F0BEFF0220084B002208498C
:1018F0000090084800F0F2FF002001F0DDFA4FF4FC
:101900007A7001F085FC08BD0000B44200801A44E2
:1019100049928042499280C22DE9F04F85B08948B2
:10192000006800F6C410FEF774FE0446854800689F
:10193000FEF76FFE054600200190CDE90205034643
:10194000814A014604940090804802F015FD22E08F
:101950007E4802F0DFFA7E490390FEF759FC7D498C
:101960000490FEF755FC8346FEF7BCFE80467A4A9B
:101970007A4BFEF7D6FD06460022794BFEF7D1FDE5
:101980000446FEF7F3FE7749086000204860002116
:10199000084601F02DFB6B480068FEF73AFE04464E
:1019A0006A48416A2046FEF7FDFED1D3002001239C
:1019B0006D4A05210090184600F054FF0220009067
:1019C0006A48426A6A4B00216A4800F087FF052195
:1019D000022001F0C7FB00200123634A052100908B
:1019E000032000F03FFF6149C86A012101F000FBBC
:1019F000012003465C4A02210090032000F032FFE0
:101A0000012000905948C26A5B4B5749002000F002
:101A100065FF4FF47A7001F0FBFB4A48006800F65E
:101A2000C410FEF7F6FD044646480068FEF7F1FDD7
:101A3000054600200190CDE9020503464F4A0146C4
:101A400004940090414802F097FC26E03F4802F0E1
:101A500061FA80F0004B3E495846FEF7D9FB8146BB
:101A60003C49FEF7D5FB8046FEF73CFE06463A4A67
:101A70003A4BFEF756FD04460022394BFEF751FD66
:101A8000CDE90201FEF772FE364908600020486089
:101A90003649C86A002101F0ABFA2A480068FEF70F
:101AA000B8FD04462948416A2046FEF77BFECDD3A7
:101AB0004FF47A7001F0ACFB01212B4801F098FA49
:101AC0004FF47A7001F0A4FBFFF70CFA02202C4BC4
:101AD000254A2C490090002000F000FF4FF47A7056
:101AE00001F096FB032001F0E7F94FF47A7001F062
:101AF0008FFB4FF47A7001F08BFB0220204B1A4AC7
:101B00001C490090002000F0E9FE4FF47A7001F0CB
:101B10007FFB1649C86A012101F06AFA4FF0000AFA
:101B200005E04FF47A7001F073FB0AF1010ABAF193
:101B30005A0FF6DB4FF47A7001F06AFB05B0BDE88E
:101B4000F08F00001800002000004D44E402002047
:101B50000000A0410000C3441F85EB51B81E09409E
:101B600000004D406C0200200000B44284020020BE
:101B700000409244000020420000C3430000434460
:101B800000009643000020C22DE9F04786B00120F6
:101B90000346434A0321009000F064FE0120414BBC
:101BA00000223F490090104600F098FE4FF47A70F2
:101BB00001F02EFB3C48006800F6C410FEF729FD3A
:101BC000044639480068FEF724FD054600200190D0
:101BD000CDE902050346354A014604940090344895
:101BE00002F0CAFB25E0324802F094F980F0004A86
:101BF00030495046FEF70CFB81462F49FEF708FBA3
:101C00000446FEF76FFD07462C4A2D4BFEF789FC74
:101C1000054600222B4BFEF784FCCDE90401FEF7BC
:101C2000A5FD29490860002048600021084601F010
:101C3000DFF91D480068FEF7ECFC04461C48416AC9
:101C40002046FEF7AFFDCED34FF47A7001F0E0FAF4
:101C500001211E4801F0CCF9002001F02DF94FF4CC
:101C60007A7001F0D5FA04E000201749086018489E
:101C70004860184800680028F6D01648001D006823
:101C80000028F1D00B48104948604FF47A7001F0F9
:101C900085FF4FF47A7001F0BBFA06B0BDE8F0871B
:101CA0000000B4420000B443180000200000574474
:101CB000E40200200000A0410000C3441F85EB5156
:101CC000B81E094000004D406C0200200000344363
:101CD0000000F0412401244270B504462B48B0FBBB
:101CE000F4F63046FEF795FC05462948806940F039
:101CF0001000274988610846C06940F40020C86187
:101D00000846406940F0020048610846006940F416
:101D1000002008610846006920F4002008611D4881
:101D2000406820F47F401B4948600846406840F402
:101D30000B4048602846FEF7A8FC1749088032206F
:101D4000164908601448001F091D08601448091D41
:101D500008601248001F006843F2810108430F49E0
:101D6000091F08600C480C30008840F040000A4908
:101D70000C310880022334221946002000F090FA2A
:101D800042F21C000449091D088070BD0051250263
:101D90000010024000100140084C00403404024092
:101DA000C200002070B504462948B0FBF4F6304666
:101DB000FEF72FFC05462748806940F008002549BA
:101DC00088610846C06940F48020C86108464069BF
:101DD00040F0010048610846006940F48020086135
:101DE0000846006920F4802008611B48006820F440
:101DF0007F40194908600846006840F40B400860BD
:101E00002846FEF742FC15490880422014494863E1
:101E10001248001F88631348C8630846006B43F2EA
:101E2000810108430E4908630C480C30008840F0DB
:101E300040000A490C31088002232722012108466C
:101E400000F02EFA42F21C000449091D088070BD02
:101E50000051250200100240040C014008480040D7
:101E6000000002408000002010B500200F490860EB
:101E70000F48006820F00F000D4908600846006810
:101E800040F00300086000200A49C1F880010220E8
:101E900001F0A2FE012005490860022001F09CFE2D
:101EA00000200449C1F8880110BD0000888121424A
:101EB000000C0140008021421448806940F0080075
:101EC000124988611248006820F470601049086067
:101ED0000846006840F4407008600C48806940F093
:101EE00008000A4988610A48006820F00F00084984
:101EF00008600846006840F00300086001200549BA
:101F000008600549C1F80001704700000010024058
:101F1000000C0140808121420080214210B5002048
:101F20000F4908600F48006820F00F000D49086055
:101F30000846006840F00300086001200A49C1F823
:101F40008001022001F048FE0120054908600220BE
:101F500001F042FE00200449C1F8880110BD0000D4
:101F600088812142000C01400080214270B5054665
:101F700000241748006820F00F0015490860084643
:101F8000006840F008000860002616E000201149B3
:101F90000860022001F020FE01200F49C1F88801ED
:101FA0006006040E0B488838006808B1601CC4B293
:101FB000012001F011FE701CC6B2082EE6DB15B937
:101FC000FFF7ACFF01E0FFF74FFF204670BD0000B8
:101FD000000C0140888121420080214270B50446F6
:101FE0001548006820F00F00134908600846006893
:101FF00040F003000860002010490860002517E049
:10200000E0090E49083908606006040E022001F05C
:10201000E3FD01200A49C1F88801022001F0DCFD3E
:10202000002006490860022001F0D6FD681CC5B2F8
:10203000082DE5DB70BD0000000C014088812142C5
:102040000080214210B50F48006820F00F000D49B4
:1020500008600846006840F00300086001200A4953
:1020600008600A49C1F88801042001F0B5FD00208C
:1020700005490860042001F0AFFD00200349C1F8C4
:10208000880110BD000C0140808121420080214266
:1020900010B50F48006820F00F000D490860084691
:1020A000006840F00300086000200A4908600A49FF
:1020B000C1F88001042001F08FFD0120054908606E
:1020C0000549C1F88001042001F086FD10BD000023
:1020D000000C0140888121420080214210B500247B
:1020E0001448006820F00F00124908600846006894
:1020F00040F00800086001200F49086001F06CFD05
:1021000001200E49C1F8880101F066FD07E0601C5E
:10211000C4B2FA2C03DDFFF7BBFF012010BD064857
:10212000803800680028F2D103490831086000BFF8
:10213000F4E70000000C0140808121420080214230
:102140002DE9F047044621686068FEF75BF8A0605F
:10215000E1684FF08040FEF75BF88246A168FEF729
:1021600054F881462169FDF7FBFF8046216AFEF79E
:102170004FF80646A168E069FEF74AF88146E16833
:10218000A068FEF73FF88246A169FEF741F8804655
:102190004946FDF7E5FF07463146FDF7E1FF0546F5
:1021A000E16AFDF7DDFFE062E0682061A068E060C1
:1021B000616AE06AFEF700FB02D2606AE06206E054
:1021C000A16AE06AFEF7EEFA01D2A06AE062E06A74
:1021D000BDE8F0870848806940F040000649886102
:1021E0000648006820F47F400449086008460068FB
:1021F00040F4884008607047001002400418014015
:102200000A48806940F4807008498861084840683D
:1022100020F07040064948600846406840F0405051
:102220004860012003490860704700000010024028
:1022300000200140BC01244200B50020154908617E
:10224000C8601420486100208861C86108460068A1
:1022500040F001000860084640680F4908400D49F9
:102260004860084600680D4908400A490860084669
:10227000006820F4802008600846406820F4FE00D2
:1022800048600020886000214FF0006000F058F89E
:1022900000BD0000001002400000FFF8FFFFF6FE46
:1022A0002DE9F0410746884614461D46284600F0B1
:1022B00033F8C5F1040007FA00F60F20284100EAC0
:1022C0000800064306F00F06E21704EBD262521133
:1022D000920002F1E022D2F800212146E31704EB3C
:1022E000D3635B11A4EB431C012303FA0CF31A43E1
:1022F0002046E31704EBD3635B119B0003F1E0235B
:10230000C3F800210348005D40EA06100149085562
:10231000BDE8F08100E400E00146072323EA010262
:102320001202054B18684FF6FF031840034B184381
:102330001043014B186070470CED00E00000FA05F7
:10234000024A0A400243024B1A60704780FFFF1F97
:1023500008ED00E030B5002809DD0124494D2C606E
:102360000024494DC5F8B441484D288014E00028A8
:102370000ADA0024434D2C600124434DC5F8B441D2
:102380004442424D2C8007E000243E4D2C603E4DDF
:10239000C5F8B4413D4D2C8000290BDD0124394D99
:1023A00008352C600024384DC5F8BC41374D2D1D33
:1023B000298018E000290CDA0024324D08352C6001
:1023C0000124314DC5F8BC414C42304D2D1D2C80AF
:1023D00009E000242B4D08352C602B4DC5F8BC417D
:1023E0002A4D2D1D2C80002A0BDD0124254D0C3D8E
:1023F0002C600024244DC5F8A041244D08352A80C6
:1024000018E0002A0CDA00241E4D0C3D2C6001243B
:102410001D4DC5F8A04154421C4D08352C8009E0E3
:102420000024184D0C3D2C60174DC5F8A041174DE8
:1024300008352C80002B0BDD0124124D203D2C6033
:102440000024114DC5F89441104D0C352B8018E037
:10245000002B0CDA00240B4D203D2C6001240A4D8A
:10246000C5F894415C42094D0C352C8009E00024EC
:10247000044D203D2C60044DC5F89441034D0C35AE
:102480002C8030BDB0812142008021423434014093
:10249000544A126822F47F02524B1A601A4612689C
:1024A00042F44C121A601A1D126802F47F421B1D7E
:1024B0001A601A4612684C4B1A434A4B1B1D1A608D
:1024C00000224A4B1A604A4BC3F8B421474B0833E9
:1024D0001A601B1D1A60454B0C3B1A601B1F1A60CB
:1024E000424B203B1A60424BC3F89421414A926907
:1024F00042F010023F4B9A611A46926942F4005230
:102500009A613D4A126822F07F423B4B1A601A469C
:10251000126842F03B421A601A46526822F0FF02EB
:102520005A601A46526842F0BB025A60334A108021
:10253000121F1180314A103A128842F4C0422F4BC8
:10254000103B1A801A46128842F060021A801A1F45
:10255000128842F4C0421B1F1A801A46128842F0A9
:1025600060021A801A1D128842F400621B1D1A8034
:102570001A46128842F008021A801A1F128842F482
:1025800000621B1F1A801A46128842F008021A8045
:102590001A4A0C3A128842F48052184B0C3B1A80AB
:1025A0001A46128842F480721A801A46128842F043
:1025B00010021A801A46128842F001021A800F4A4D
:1025C0001832128842F400420C4B18331A804FF430
:1025D00000420A4B2C3B1A801A46128842F0010234
:1025E0001A807047000C014033003333B081214220
:1025F0000080214200100240001001402C340140B4
:102600002DE9FF5F022000F0A3FB0446FDF7F8FF71
:102610008B494860032000F09BFB0446FDF7F0FF68
:1026200088494860042000F093FB0446FDF7E8FF6A
:1026300085494860052000F08BFB0446FDF7E0FF6C
:102640008249486082498868FEF74CF806464FF098
:102650003332804BFDF7F3FE04460D467C49486853
:10266000FEF740F806467C4A7C4BFDF7E8FE8046C4
:10267000894677490868FEF735F80646764A784B6A
:10268000FDF7DDFE42464B46CDE90001FDF7D1FEE8
:1026900022462B46CDE90201FDF7CBFE8246FEF72E
:1026A00065F8674908606A498868FEF71BF80446C0
:1026B0004FF03332674BFDF7C2FECDE902016449AA
:1026C0004868FEF70FF80646634A644BFDF7B7FE0D
:1026D00004460D465E490868FEF704F806465E4A61
:1026E0005E4BFDF7ACFE804622462B46FDF7A1FE71
:1026F000CDE90001DDE90223FDF79BFE8246FEF7EE
:1027000035F85049086052498868FDF7EBFF0646E6
:102710004FF033324F4BFDF792FECDE900014C49AB
:102720004868FDF7DFFF06464B4A4C4BFDF787FE36
:102730008046894646490868FDF7D4FF0646464A62
:10274000464BFDF77CFE824642464B46FDF7D0FDE8
:102750000446DDE90023FDF76CFECDE90201FEF73A
:1027600005F8394908603A498868FDF7BBFF044617
:102770004FF03332374BFDF762FE82468B463449C9
:102780004868FDF7AFFF0646334A344BFDF757FE66
:1027900004460D462E490868FDF7A4FF06462E4A5A
:1027A0002F4BFDF74CFE804622462B46FDF7A0FD41
:1027B00052465B46CDE90001FDF73BFECDE9020143
:1027C000FDF7D4FF21490860214908680021FDF781
:1027D000E9FF12D11E4948680021FDF7E3FF0CD143
:1027E0001B4988680021FDF7DDFF06D100231A464A
:1027F00019461846FFF7AEFD20E01448FFF7A0FC8D
:102800008046FDF729FF04460F48FFF799FC8046F4
:10281000FDF722FF05460B48FFF792FC8046FDF7C7
:102820001BFF06460648FFF78BFC8046FDF714FFAA
:10283000074623462A463146FFF78CFDBDE8FF9F39
:102840000001002034010020680100209C010020CC
:102850006C0200203333F93FBBB9F8DB9EA0E63FA2
:102860009EA0E6BF2DE9F04105460C4616461F46E0
:10287000DDF81880B7B917480068281A04D0424616
:102880003146284600F01CFDFEF72CFB124800687C
:10289000201A04D042463146204600F07DFDFEF766
:1028A00021FB15E00C480068201A04D0424631464E
:1028B000204600F071FDFEF715FB06480068281A57
:1028C00004D042463146284600F0FAFCFEF70AFBE7
:1028D000BDE8F081580000205C0000202DE9F041A7
:1028E00004460D4616461F46DDF81880FEF7FAFA34
:1028F000B8F1000F14D0B8F1010F28D0B8F1020FD1
:102900003CD106E02048046045600021304600F0DC
:102910006FFB1D4948693946FDF744FFF2D32DE0AE
:102920000EE0194804601020FEF75EF91649486071
:102930000021304600F05CFBFEF7FAF8FEF780FB62
:10294000114948693946FDF72DFFEAD316E00EE03C
:102950000120FEF749F90C4908600846456000214E
:10296000304600F045FBFEF7BDF8FEF7AFFB064929
:1029700048693946FDF716FFEAD300BF00BFFEF7EE
:10298000B1FABDE8F08100006C02002070B5044689
:102990002048B0FBF4F63046FDF73BFE05461E48E6
:1029A000C06940F480101C49C8610846806940F045
:1029B000300088610846006940F4801008610846CC
:1029C000006920F4801008611448406820F47020E9
:1029D000124948600846406840F43020486010487A
:1029E000006820F470600E4908600846006840F4F2
:1029F000006008602846FDF748FE0A490881022366
:102A0000352200211846FFF74BFC42F22C00054905
:102A1000888170BD00512502001002400010014065
:102A200000140140005000402DE9FF4F85B00D46D5
:102A300014469946DDF848A000200490B9F1000F33
:102A400006D0B9F1010F1CD0B9F1020F18D156E030
:102A50002046FDF7F4FD554A554BCDE90001FDF741
:102A6000EEFC0022534BCDE90201FDF741FC074685
:102A7000FDF71FFE04900121DDE9042001F014FAA6
:102A80008FE02046FDF7DBFD484A494BCDE90001C8
:102A9000FDF7D5FC07460022464BFDF729FCCDE9A2
:102AA0000201FDF706FE04900021DDE9042001F09B
:102AB000FBF9AC4211DD601BFDF7B0FD07463B4A58
:102AC0003D4BFDF7BCFCCDE90201FDF7F2FD1FFA1D
:102AD00080FB584601F062F810E0281BFDF79EFDD0
:102AE0000746324A344BFDF7AAFCCDE90201FDF757
:102AF000E0FD1FFA80FB584601F050F851E0AC426F
:102B000026DD2E4621E03046FDF799FD0746274A8F
:102B1000274BFDF794FC0022264BCDE90001FDF781
:102B2000E7FBCDE90201FDF7C4FD04900021DDE9DA
:102B3000042001F0B9F9022001F030F8FA210AFB73
:102B400001F001F049F8701CC6B2A642DBDD27E0B7
:102B5000A54225DD2E4621E03046FDF770FD0746F3
:102B6000124A134BFDF76BFC0022124BCDE900011A
:102B7000FDF7BEFBCDE90201FDF79BFD04900021AE
:102B8000DDE9042001F090F9022001F007F8FA21B4
:102B90000AFB01F001F020F8701EC6B2A642DBDA93
:102BA00000BF00BF09B0BDE8F08F00009A99999965
:102BB0009999014000C063409999054010B50446B9
:102BC000FFF77AF90021084601F08DF9204601F05F
:102BD00005F910BD002141608160C160016170474D
:102BE00070B505460C460D48C06940F010000B4911
:102BF000C8610B498D850C850846808940F001002D
:102C000088810223362200210846FFF749FB044849
:102C1000008840F001000249088070BD00100240A9
:102C20000010004010B53A483A4988613A48C861F6
:102C300000200862394848626FF400008862384812
:102C400008630846FFF7C6FF3148364988613248B5
:102C5000C86100200862314848626FF40000886251
:102C60002F4808630846FFF7B5FF29482E498861B9
:102C70002948C86100200862284848626FF40000B3
:102C80008862274808630846FFF7A4FF20482749C1
:102C900088612148C86100200862204848626FF4BA
:102CA000000088621E4808630846FFF793FF20482B
:102CB000204988610020C8610862184848626FF4A2
:102CC00000008862164808630846FFF783FF1A4829
:102CD0001A4988610020C8610862104848626FF490
:102CE000000088620E4808630846FFF773FF124829
:102CF000134988611348C86100200862124848627D
:102D000012488862064808630846FFF763FF10BD53
:102D1000B81E8D4100010020CDCC4C40FFFF7F7FCD
:102D200000007A4434010020680100209C0100204A
:102D30000000B040D00100200000A04004020020AC
:102D40003802002017B7D13900007042000070C26D
:102D500070B50546022D06D0032D1FD0042D36D0A8
:102D6000052D66D14CE04FF08040808C04B20020ED
:102D70004FF08041888443F69820844202DDA4EB22
:102D8000400004B22046FDF73BFC06462B48016894
:102D90003046FDF7E5F9294908604CE028480088ED
:102DA00004B200202649088043F69820844202DDC0
:102DB000A4EB400004B22046FDF722FC0646214861
:102DC00001683046FDF7CCF91E49086033E01E4823
:102DD000008804B200201C49088043F698208442F1
:102DE00002DDA4EB400004B22046FDF709FC0646D4
:102DF000164801683046FDF7B3F9144908601AE037
:102E00001348008804B200201149088043F6982036
:102E1000844202DDA4EB400004B22046FDF7F0FB43
:102E200006460C4801683046FDF79AF909490860E2
:102E300001E0002400BF00BF204670BD1C00002040
:102E4000240400402000002024080040240000202A
:102E5000240C00402800002070B506460025002400
:102E600008E02146304600F009F808B1681CC5B2F8
:102E7000601CC4B20A2CF4DB284670BD0246012A4D
:102E800008D188400A4B1B88184008B101207047C0
:102E90000020FCE7102A09D101208840054B1B883F
:102EA000184008B10120F2E70020F0E70020EEE72B
:102EB0002C0000202E00002038B5044644B9012023
:102EC00000233C22194600900F20FFF7ADFD30E0B3
:102ED000012C08D1012000237822194600900F20F0
:102EE000FFF7A2FD25E0022C07D1012000232D22AF
:102EF00019460090FFF798FD1BE0032C08D1012034
:102F000000235022194600901846FFF78DFD10E06F
:102F1000042C0ED1012000232822194600901846C7
:102F2000FFF782FD01200023642219460090FFF77D
:102F30007BFD38BD2B4A926942F40062294B9A61AD
:102F40001A46926942F004029A61274A12684FF2C7
:102F50000F039A43244B1A601A4612684BF20B0374
:102F60001A43214B1A60214A1080121F11801F4AF8
:102F7000103A128842F4C0421C4B103B1A801A1FB0
:102F8000128842F060021B1F1A801A1D128842F438
:102F900000621B1D1A801A1F128842F008021B1FB4
:102FA0001A80124A0C3A128842F480520F4B0C3BA2
:102FB0001A801A46128842F001021A800B4A18320F
:102FC000128842F40042094B18331A804FF4004231
:102FD000064B2C3B1A801A46128842F001021A80D6
:102FE0007047000000100240040801402C2C0140F2
:102FF0002DE9FE4F06460C464F4802904F49304699
:10300000FDF7DAFB0BD83046FDF76CFB07460022D4
:103010004B4B00F06DFE8246FDF7A8FB064644BB15
:103020004848056A2846FDF723FF05463046FDF768
:103030001FFF064644493046FDF7B4FB0FD1424915
:103040003046FDF7DFF807463F492846FDF7DAF836
:1030500080463946FDF71EFE3C49886005E0314652
:103060002846FDF717FE39498860142000F096FDC8
:103070005FE0012C1BD13648006800F2DC5911E0FA
:103080003048056A33492846FDF796FB04D22B49A0
:103090002846FDF7B7F8054631462846FDF7FAFD04
:1030A0002A4988602A4800684845E9D341E0022C53
:1030B0003FD12448056A28E02248056A294630465F
:1030C000FDF7A3F807460021FDF76CFB14D2224858
:1030D000019029463046FDF798F88246FDF702FB3D
:1030E00021F00041074600221C4BFDF727FB06D2CA
:1030F0004FF07E50019002E04FF07E500190184951
:103100000198FDF785F8114988600298FDF7EAFA01
:103110000746884629463046FDF777F80090FDF7C8
:10312000E1FA21F0004182463A464346FDF706FBAC
:10313000C2D3BDE8FE8F0000000040400000B44351
:103140000080764084020020000034436C0200209E
:103150001800002000008743000080BF0080664008
:103160000000A04170B505460C46034805600348C1
:103170000460FDF7B7FE70BD580000205C00002021
:1031800030B504460025FFF757F81F48006840F4A3
:1031900080301D49086000BF1B480068400C0028B3
:1031A000FAD04FF4806018494860A01EC4B20846A7
:1031B000406840EA844048600846406840F48030F7
:1031C00048601248006840F03200104908600E481C
:1031D000006840F080700C49086000BF0A48006831
:1031E000400E0028FAD00848406840F00200064926
:1031F000486005E004484068C0F3870505F0030512
:10320000022DF7D130BD0000001002400020024026
:1032100010B50446002004490860486088602046D4
:1032200000F0BCFC10BD00006C0200204FF080409C
:10323000008A4FF08040008A20F001004FF080416A
:1032400008827047044800880348008820F0010085
:1032500001490880704700001004004004480088BD
:103260000348008820F001000149088070470000F1
:1032700010080040044800880348008820F001003E
:103280000149088070470000100C004010B50A4842
:10329000008A00F0010040B1084800681430074976
:1032A0000860FFF7ADF9FDF701FD0348008A20F043
:1032B00001000149088210BD0010004018000020E4
:1032C0002DE9F05F0446894616464FF07E552C489E
:1032D000D0F824A02B480068201A4FD02948006855
:1032E000201A01D585F000452549086A2649FCF7D2
:1032F00089FF8346FDF7F6F921F0004107460022D9
:10330000224BFDF703FA04D285F000451C48D0F8A3
:103310002CA019E049462846FCF77AFF1C490860B2
:103320001020FDF761FC1A49486000215046FFF764
:103330005FFEFDF7FDFBFDF783FE12480068A0422B
:1033400002D1FDF7CFFD00E0E4E700BF0BE0494606
:103350002846FCF75DFF0E49086000204860002108
:103360005046FFF745FE0A4948690A49FDF71AFA2F
:10337000EDD31EB94FF47A70FFF74AFFBDE8F09F16
:1033800084020020580000200000344300804640A2
:103390006C020020000025432DE9F05F04468946B9
:1033A00016464FF07E554048D0F824A03F480068AC
:1033B000201A76D03D480068201A01D585F00045D6
:1033C0003949086A3A49FCF71DFF8346FDF78AF937
:1033D00021F0004107460022364BFDF797F904D251
:1033E00085F000453048D0F82CA03FE00120FDF7E3
:1033F000FBFB3149086049462846FCF709FF2E4986
:10340000486000215046FFF7F3FDFDF76BFBFDF729
:103410005DFE2A480068012804D12848001D006884
:1034200001281CD02648006841F28831084425490B
:1034300008600AE04FF47A70FFF7EAFE204800685F
:1034400020490968884200D908E01C480068012822
:10345000F0D11A48001D00680128EBD100BF1348C5
:103460000068A04202D1FDF73DFD00E0BEE700BFCD
:103470000CE000201049086049462846FCF7C8FEC9
:103480000D49486000215046FFF7B2FD0A494869DE
:103490000D49FDF787F9ECD31EB94FF47A70FFF7A9
:1034A000B7FEBDE8F09F0000840200205C00002011
:1034B00000003443008046406C0200202801234273
:1034C00018000020640000200000254331480088D7
:1034D00000F0080040B12F48001D00882D480088EA
:1034E00020F008002B4908802A48008800F01000CE
:1034F00000284ED027480088274908702548001D1D
:103500000088087025480068C0F132000870234820
:10351000001F006820F001002049091F08602048B2
:103520000078FF282CD11E484078FF2828D11C485D
:10353000C078052824D11A480079082820D11848D5
:10354000807801280CD11648407900021449897905
:1035500040EA01101249C9790843124908800FE076
:103560000F48807802280BD10D48407900020C49A1
:10357000897940EA01100A49C97908430A49088053
:10358000322006490860081F006840F00100091F4A
:1035900008607047004C00401000002034040240D6
:1035A000C20000202C0000202E00002000BF054992
:1035B000098801F040010029F9D00249091D08805D
:1035C00070470000004C00402949098801F02001A3
:1035D00000294CD026498988C8B22649098801F4B7
:1035E0000041002943D12349098801F4804159B39E
:1035F00020490988C1F30D011F4A50541D4909880B
:10360000491C1C4A118011460988C1F30D01032988
:103610002DDB19490978FF2901D1012100E00021A2
:10362000154A9278232A01D1012200E0002211409C
:1036300031B10121114A117000210E4A118016E0AA
:1036400000210E4A117012E0FF2810D109490988A3
:1036500041F48041074A118011460988C1F30D01E8
:10366000054A505403490988491C024A1180704791
:103670000050004014000020F40000201200002040
:1036800000BF0449098801F040010029F9D001492F
:1036900088807047005000400949098801F02001E6
:1036A00069B10749091D0988C8B20549091D088083
:1036B00000BF0349098801F040010029F9D0704793
:1036C0000038014070B504461B48B0FBF4F63046A4
:1036D000FCF79FFF05461948806940F00400174930
:1036E00088610846806940F4804088610846C06867
:1036F00040F48040C8600846C06820F48040C8603C
:103700000F48006820F47F600D4908600846006893
:1037100040F40B6008602846FCF7B7FF09490880B1
:103720000223252219461846FEF7BAFD42F22C0064
:103730000449091D088070BD00A24A04001002401F
:1037400004080140083801402049098801F00801B7
:1037500041B11E49091D09881C49098821F0080149
:103760001A4A11801949098801F0100161B31749FB
:103770000988174A11701549091D098811701549E2
:10378000096FC1F11401117013490978FF290ED195
:1037900011494978114A1170002006E00E4A411C77
:1037A000515C0F4A1154411CC8B20828F6DB094984
:1037B000C96E21F00101074AD16614211167114633
:1037C000C96E41F00101D16670470000004400401D
:1037D00004000020000002406C0000200E000020C9
:1037E000060000202DE9F05F9248008800F00800F4
:1037F00040B19048001D00888E48008820F00800E5
:103800008C4908808B48008800F0100000287DD08B
:1038100088480088884908708648001D008808701C
:103820008648406BC0F1420008708448006B20F06D
:10383000010082490863422048630846006B40F05B
:10384000010008637C48007821285FD17C484078DB
:10385000512859D17A49C978090209B2784A92782F
:1038600041EA0200FCF7DAFE06460022754BFCF73F
:1038700058FE04460022744BFCF7E1FD8246734A71
:10388000734BFCF7DCFD8046FCF770FF7149086064
:103890006B494979090209B2694A127941EA020081
:1038A000FCF7BCFE80460022664BFCF73AFE06465B
:1038B0000022654BFCF7C3FD0446644A644BFCF7E9
:1038C000BEFD8246FCF752FF624948605C49C979F7
:1038D000090209B25A4A927941EA0200FCF79EFEB7
:1038E00080460022574BFCF71CFE06460022564B32
:1038F000FCF7A5FD0446554A554BFCF7A0FD824652
:10390000FCF734FF534988604D4800E090E0007BAD
:10391000522844D14A49497B494A927B41EA0220D4
:10392000FCF77CFE80460022464BFCF7FAFD06467B
:103930000022494BFCF783FD0446FCF717FF45497D
:10394000C8603F49C97B3E4A127C41EA0220FCF72D
:1039500065FE804600223B4BFCF7E3FD0646002255
:103960003D4BFCF76CFD0446FCF700FF394908614C
:103970003349497C324A927C41EA0220FCF74EFEF0
:10398000804600222F4BFCF7CCFD06460022324B2E
:10399000FCF755FD0446FCF7E9FE2E49486128482E
:1039A000C07D532844D12649097E254A527E41EAEA
:1039B0000220FCF733FE80460022224BFCF7B1FDCB
:1039C00006460022254BFCF73AFD0446FCF7CEFEE6
:1039D000204988611A49897E194AD27E41EA02202B
:1039E000FCF71CFE06460022164BFCF79AFD8046AB
:1039F00000221A4BFCF723FD0446FCF7B7FE1549DD
:103A0000C8610F49097F0E4A527F41EA0220FCF744
:103A100005FE804600220B4BFCF783FD0646002284
:103A20000E4BFCF70CFD0446FCF7A0FE09490862AA
:103A3000BDE8F09F004800400F0000200000024059
:103A4000800000200000E040000030409A999999E1
:103A5000999923408402002000409F4000806640E6
:103A600070B504462948B0FBF4F63046FCF7D1FDAA
:103A700005462748806940F00400254988610846CA
:103A8000C06940F40030C8610846406940F0010058
:103A900048610846006940F4003008610846006942
:103AA00020F4003008611B48006820F47F40194969
:103AB00008600846006840F40B4008602846FCF7A0
:103AC000E4FD154908801420144908671248001FB6
:103AD0004867134888670846C06E43F2810108436F
:103AE0000E49C8660C480C30008840F040000A4976
:103AF0000C3108800223262201211846FEF7D0FB54
:103B000042F21C000449091D088070BD00512502C5
:103B1000001002400008014008440040000002403C
:103B20006C0000200022134610461146FCF7F9BC39
:103B300002E008C8121F08C1002AFAD17047704776
:103B4000002001E001C1121F002AFBD170470000D4
:103B50000149086070470000680000204FF0E02134
:103B6000096921F004014FF0E0221161C21700EB56
:103B70005272C2F3C702074B1A701946097801EB5B
:103B80004102C2EBC1114FF6FF7202EAC101024AC3
:103B900011807047000000200200002001460D4AFD
:103BA00012884A434FF0E0235A6100229A610122B1
:103BB0001A6100BF4FF0E022106900F001021AB153
:103BC00000F48032002AF5D000224FF0E0231A6181
:103BD0009A6170470200002001460D4A12784A435C
:103BE0004FF0E0235A6100229A6101221A6100BF5E
:103BF0004FF0E022106900F001021AB100F48032A7
:103C0000002AF5D000224FF0E0231A619A61704734
:103C1000000000202DE9F041C1F30A52A2F2FF3664
:103C20002F4A304B0D460446142E2FDA002E12DA9E
:103C3000FCF75EFB00221346FCF780FD4CD2002D02
:103C4000A4BF0024254647DA25F00040204318BFD2
:103C5000254D41D018E0DFF894C02CFA06F705EAAC
:103C6000070C5CEA040C08BFBDE8F081FCF740FBE0
:103C700000221346FCF762FD2ED2002D03DA4FF42A
:103C80008010F0400544BD43002425E0332EC8BF1A
:103C9000BDE8F081A6F1140C4FF0FF3727FA0CF7BE
:103CA0003C4208BFBDE8F081FCF7C6FB002213468A
:103CB000FCF744FD10D2002D0DDA142E08BF6D1C48
:103CC00009D0C6F13400012101FA00F02044A042DD
:103CD00038BF6D1C0446BC4329462046BDE8F08130
:103CE0009C7500883CE4377E0000F0BFFFFF0F00AA
:103CF00070B514461D460E46002814BF0121002150
:103D0000314321F00041C1F17F6101F1E041C90F70
:103D100016D1002C14BF01210021294321F00041BC
:103D2000C1F17F6101F1E041C90F09D11449B1EB43
:103D3000460F08BF00281CD0690008BF002C18D00F
:103D40003146FCF759FE024640F2FF7030EA11504E
:103D50000DD0F017B0EBE17F09D0084665F31E00E7
:103D600084460B4620466146FCF766FB0246104639
:103D700070BD0120FFF7ECFEBDE87040FFF7D2BE3A
:103D80000000E0FF0920FFF7FBF94820FFF7E6FEFF
:103D9000FCF7F4FEFDF78CF8FDF772FC00BFFEE7C0
:103DA00070B50446FEF74EF98020FEF717F9FEF7CE
:103DB00095F92046FEF712F9FEF790F9FEF742F961
:103DC0008120FEF70BF9FEF789F90020FEF7CEF807
:103DD0000546FEF75DF9284670BD00002DE9FC5F41
:103DE00083465846FCF77EFC8046294A294BFCF75F
:103DF00026FB0646FCF7BAFC83460024264D00222B
:103E0000264B20462946FCF78CFB04460D465846B7
:103E1000FCF768FC064632460B4620462946FCF76E
:103E200080FB04460D4600221D4B20462946FCF728
:103E300000FB04460D4600221A4B20462946FCF79B
:103E400057FA0646FFF7E6FE8046FCF732FCC0B2A2
:103E500001900020FFF7A4FF82460AF07F0040F0A7
:103E6000100000900020009900F03DF8FE2001991C
:103E700000F039F85146002000F035F80220FFF735
:103E80008DFE4AF0A101002000F02DF8BDE8FC9F56
:103E9000713D0AD7A370ED3F84D777410000B04051
:103EA0000000F03F0000E03F70B504460D461646A6
:103EB000E9B2A200921DD0B200F015F8A100C91D10
:103EC000C8B2C5F3072100F00EF8F1B2A200083223
:103ED000D0B200F008F8A1000931C8B2C6F307213A
:103EE00000F001F870BD70B505460C46FEF7AAF863
:103EF0008020FEF773F8FEF7F1F82846FEF76EF81B
:103F0000FEF7ECF82046FEF769F8FEF7E7F8FEF753
:103F1000BFF870BD01B58EB0FE480068FCF779FBB4
:103F20000D900E98406A01460C900D98FCF73AFCF3
:103F30007ED2F8480068FCF76CFB0D900E98806A02
:103F4000014608900D98FCF75DF90A900E98806A7A
:103F5000014606900D98FCF755F908900E98806A76
:103F6000014604900D98FCF74DF906900E98806A72
:103F7000014602900D98FCF745F904900E98806A6E
:103F8000014601900D98FCF73DF902900E984069AA
:103F9000014601900298FCF73BF903900499FCF765
:103FA00037F905900699FCF733F907900899FCF763
:103FB0002FF909900A99FCF72BF90C900E98806A5A
:103FC000014606900D98FCF71DF908900E98806A3E
:103FD000014604900D98FCF715F906900E98806A3A
:103FE000014602900D98FCF70DF904900E98806A36
:103FF000014601900D98FCF705F902900E980069B2
:10400000014601900298FCF703F903900499FCF72C
:10401000FFF805900699FCF7FBF807900899FCF764
:10402000F7F80A900E98806A014604900D9800E017
:104030009DE1FCF7E7F806900E98806A0146029031
:104040000D98FCF7DFF804900E98806A0146019005
:104050000D98FCF7D7F802900E98C06801460190C1
:104060000298FCF7D5F803900499FCF7D1F8059075
:104070000699FCF7CDF808900E98806A01460290E8
:104080000D98FCF7BFF804900E98806A01460190E5
:104090000D98FCF7B7F802900E98806801460190E1
:1040A0000298FCF7B5F803900499FCF7B1F8069074
:1040B0000E98806A014602900D98FCF7A3F80390D1
:1040C0000E984068014602900398FCF7A1F804900E
:1040D0000E980068014603900498FCF741F805909B
:1040E0000699FCF73DF807900899FCF739F8099014
:1040F0000A99FCF735F80B900C99FCF731F80E99FA
:1041000088610E98806A014608900D98FCF77AF84D
:104110000A900E98806A014606900D98FCF772F896
:1041200008900E98806A014604900D98FCF76AF892
:1041300006900E98806A014602900D98FCF762F88E
:1041400004900E984069014602907348FCF760F8AD
:1041500003900499FCF75CF805900699FCF758F871
:1041600007900899FCF754F809900A99FCF750F861
:104170000C900E98806A014606900D98FCF742F864
:1041800008900E98806A014604900D98FCF73AF862
:1041900006900E98806A014602900D98FCF732F85E
:1041A00004900E980069014602904FF08140FCF7A0
:1041B0002FF803900499FCF72BF805900699FCF76B
:1041C00027F807900899FCF723F80A900E98806A60
:1041D000014604900D98FCF715F806900E98806A39
:1041E000014602900D98FCF70DF804900E98C068F7
:1041F000014602904948FCF70BF803900499FCF73C
:1042000007F805900699FCF703F808900E98806A65
:10421000014602900D98FBF7F5FF04900E98806818
:10422000014602904FF08040FBF7F2FF03900499A3
:10423000FBF7EEFF06900E984068014604904FF0A1
:104240007E50FBF7E5FF05900699FBF789FF079085
:104250000899FBF785FF09900A99FBF781FF0B90FE
:104260000C99FBF77DFF0E99C8610E98806A014694
:1042700008900D98FBF7C6FF0A900E98806A0146D9
:1042800006900D98FBF7BEFF08900E98806A0146D5
:1042900004900D98FBF7B6FF06900E984069014612
:1042A00004901D48FBF7B4FF05900699FBF7B0FF9B
:1042B00007900899FBF7ACFF09900A99FBF7A8FF54
:1042C0000C900E98806A014606900D98FBF79AFFB5
:1042D00008900E98806A014604900D98FBF792FFB3
:1042E00006900E980069014604904FF08140FBF75C
:1042F0008FFF05900699FBF78BFF07900899FBF756
:1043000087FF0A900E98806A014604900D98FBF78B
:1043100079FF05E0180000200000A04000004040A8
:1043200006900E98C068014604901248FBF770FF93
:1043300005900699FBF76CFF08900E98806801467F
:1043400006904FF08040FBF763FF07900899FBF75A
:1043500007FF09900A99FBF703FF0B900C99FBF7F5
:10436000FFFE0E9908620E98C0690FB000BD0020D4
:10437000FBE70000000040402DE9F04F91B00446FB
:104380000E4617461D46DDE91CABDDE91A893146AC
:104390003846FBF737FF0F9059461E98FBF732FF60
:1043A0000E90C4F828B01E9860622660656048468A
:1043B000FCF798F90022904BCDE90A01FCF73FF891
:1043C000CDE90C01FCF7D2F9A0600E990846FBF785
:1043D0001FFF494604908948FBF71AFF5146029097
:1043E000FBF713FF03900499FBF744FF294606905F
:1043F0008348FBF70DFF414601904FF08240FBF7E9
:1044000007FF00900199FBF7ABFE02900E99FBF7B6
:10441000FFFE04907B480F99FBF7FAFE0390049986
:10442000FBF7F0FE05900699FBF79AFE0790FCF764
:1044300059F9CDE90A014FF080400E99FBF7E8FEEB
:1044400003900E99FBF7E4FE04900E99FBF7E0FE53
:104450000590FCF747F902460B46CDE9060100201E
:104460006949FCF75EF8CDE90801DDE90A23FBF7AD
:10447000E6FFCDE90C01FCF779F9E0600E990846FA
:10448000FBF7C6FE514604904FF08040FBF7C0FE9C
:10449000494602905948FBF7BBFE01900299FBF791
:1044A000B1FE03900499FBF7E5FE294606904FF014
:1044B0008340FBF7ADFE414601905448FBF7A8FE50
:1044C00000900199FBF74CFE02900E99FBF7A0FEBD
:1044D00004904F480F99FBF79BFE03900499FBF75C
:1044E0003FFE05900699FBF73BFE0790FCF7FAF8B4
:1044F000CDE90A014FF080400E99FBF789FE02904A
:104500000E99FBF785FE03900E99FBF781FE049050
:104510000E99FBF77DFE0590FCF7E4F802460B468A
:10452000CDE9060100203849FBF7FBFFCDE9080182
:10453000DDE90A23FBF783FFCDE90C01FCF716F94F
:1045400020610E990846FBF763FE494604905046E9
:10455000FBF758FE03900499FBF78CFE2946069062
:104560004046FBF7FDFD2B490190FBF751FE029001
:104570000E99FBF74DFE049021480F99FBF748FE7A
:1045800003900499FBF73EFE05900699FBF7E8FDC2
:104590000790FCF7A7F8CDE90A014FF080400E998B
:1045A000FBF736FE01900E99FBF732FE02900E9952
:1045B000FBF72EFE03900E99FBF72AFE04900E994E
:1045C000FBF726FE0590FCF78DF802460B46CDE979
:1045D000060100200C49FBF7A4FFCDE90801DDE945
:1045E0000A23FBF72CFFCDE90C01FCF7BFF8606153
:1045F00011B0BDE8F08F00000000E03F0000404037
:10460000000040410000A0410000F03F0000604178
:104610000000F0C10000C0402DE9F04106460F4601
:10462000FCF799F904000D4618BF0120284320F03B
:104630000040C0F17F6000F1E040C00F0ED0301CA0
:1046400018BF0120384320F00040C0F17F6000F126
:10465000E040C00F04BF0120FFF77AFA2046294648
:10466000BDE8F08184460008000000206C000000D6
:10467000303B0008F04600086C000020D40A00001F
:10468000403B0008000000000000000000000000A7
:10469000000000000000000000000000000000001A
:1046A000000000000000000000000000000000000A
:1046B00000000000000080C0000040C0000000C0FA
:1046C000000080BF00000000000000000000803FEC
:1046D000000000400000404000008040000000005A
:1046E00000000000000000000000000000000000CA
:0400000508000131BD
:00000001FF
